:04000000BDEF3FF021
:107F790001790EF66E7F0EF76E000EF86E0900F5A8
:107F8900CF02F0016A0001CAEF3FF0000E936E952F
:107F99008E958C000E8A6E83AE13D0520E036E2A14
:107FA9000EE82EFED7032EFCD70150D8A402D0012B
:107FB9000E04D00104D8A402D0000E016E83BEFEC7
:107FC900D77F0E026402D0010E03D0020E0202F323
:107FD90050026E0150D8B402C08AFF0104D8A4032C
:107FE900D00250FF0A8A6E520E036E2A0EE82EFE48
:077FF900D7032EFCD7D0D7FF
:020000040020DA
:08000000FFFFFFFFFFFFFFFF00
:020000040030CA
:0E000000FF08191EFF8185FF0FC00FE00F40A3
:00000001FF
